:10060F001201000100000040470502100100010225
:10061F00000109022E00010100C0FA0904000004C4
:10062F00FF0000000705020240000007050402401A
:10063F000000070582024000000705840240000009
:10064F000403090410034300790070007200650071
:10065F0073007300480345005A002D0055005300E6
:10066F004200200053006F0075006E0064002000F0
:10067F00470065006E0065007200610074006F0036
:10068F007200200044006500760069006300650079
:0E069F002000720030002E00310038000000F4
:10088100907FECE0F45480C4540FFFE054072F250F
:10089100E024B4F582E4347FF58322F0E5242401D9
:1008A100F524E43523F523E43522F522E43521F559
:1008B1002122AF28AE27AD26AC25AB24AA23A9223D
:1008C100A821C3020B79AA06A9077B018B318A32C1
:1008D1008933EA494B22E52E2524F582E52D35237E
:0E08E100F58322907F00F0E4A3F0907FB52213
:10037600E4F52CF52BF52AF529C203C200C202C208
:10038600011200037E067F0F8E148F1575160675F3
:10039600172175180675194FEE54E07002812975FC
:1003A6002D00752E808E2F8F30C374AB9FFF740681
:1003B6009ECF2402CF3400FEE48F288E27F526F543
:1003C60025F524F523F522F5211208B3500A120863
:1003D600D774CD12089C80F1E4F524F523F522F5B7
:1003E600211208B35017E5302524F582E52F352371
:1003F600F583E0FF1208D7EF12089C80E4852D14E0
:10040600852E15740F2480FF740634FFFEC3E5178E
:100416009FF517E5169EF516C3E5199FF519E5181C
:100426009EF518D2E843D820907FAFE04401F090C3
:100436007FAEE0441DF0D2AFD204120B90538EF87B
:10044600300105120046C20130031A120029501568
:10045600C203120E0D200007907FD6E020E7F312AC
:0A0466000E6B12004012055D80D6F7
:10004600907FE9E0B40C004002414C90005725E057
:1000560073219321D6414C411E414C414C016F41C5
:100066004C218E2189217F2184120EFD40024158A8
:10007600907FEBE024FE601314602B2402600221C3
:100086007DE514907FD4F0E5158013907FEAE0FFBC
:10009600120CFB1208C7600CEE907FD4F0EF907F35
:1000A600D5F041584151907FEAE0FF120D6F1208DA
:1000B600C77002217BAB318B388A39893A120B3CE7
:1000C600F53B907FEEE0FFE53BD39F4003E0F53B39
:1000D600E53B70022171E4F537F536F535F534E583
:1000E6003BC394405004AF3B80027F40E4FCFDFEDE
:1000F600AB37AA36A935A834C3120B795032E53A84
:100106002537F582E5393536F583E0FF7400253766
:10011600F582E4347FF583EFF0E5372401F537E423
:100126003536F536E43535F535E43534F53480AF16
:10013600E53BC394405004AF3B80027F40907FB5BF
:10014600EFF0E53BC394405004AF3B80027F40C3D1
:10015600E53B9FF53B7440253AF53AE43539F539E8
:10016600907FB4E020E20201D680F5E4907FB5F0FE
:10017600907FB4805441514151120F304158120FB3
:100186002241581207F84158120F2A4158120F3CC3
:1001960040024158907FE8E0247F601814602124D3
:1001A60002702BA200E43325E0FFA202E4334F12D3
:1001B60008E48015E4907F00F0A3F0907FB58009F5
:1001C600120881E054011208E47402F041584151CA
:1001D600120F3E507D907FE8E024FE6011240270ED
:1001E60071907FEAE0B40104C20041584151907F0A
:1001F600EAE07022120881E4F0907FECE05480136C
:100206001313541FFFE054072F907FD7F0E4F538FF
:10021600E04420F0803C8033120F405035907FE858
:10022600E024FE601124027029907FEAE0B4010404
:10023600D200801E8015907FEAE070081208817453
:1002460001F0800E8005120F425007907FB4E04403
:0A02560001F0907FB4E04402F022B2
:0300330002002E9A
:04002E0053D8EF3282
:100EEA005391EF907FAB22907F00F0907FB5740111
:030EFA00F0D32210
:10000300907FDFE0443CF0907FDEE0443CF0907F63
:10001300DD741BF0907FA17401F0120C7512003691
:06002300120EAFD2002214
:02002900D322E0
:02004000D322C9
:020EFD00D322FE
:0807F800907FEAE0F51BD3221B
:060F2A00E51B120EF1228E
:080F2200907FEAE0F51AD322EA
:060F3000E51A120EF12289
:020F3C00D322BE
:020F3E00D322BC
:020F4000D322BA
:020F4200D322B8
:100E8500C0E0C083C082D201120EEA7401F0D082A4
:050E9500D083D0E03223
:100EC400C0E0C083C082120EEA7404F0D082D083E2
:030ED400D0E03239
:100ED700C0E0C083C082120EEA7402F0D082D083D1
:030EE700D0E03226
:100DE900C0E0C083C082907FC9E4F0907FCBF090CF
:100DF9007FCDF0907FCFF0120EEA7410F0D082D040
:040E090083D0E03280
:01003200329B
:100E9A00C0E0C083C082D203120EEA7408F0D08286
:050EAA00D083D0E0320E
:1009C50060601000FF08EFFF0F18FF0739FF0F36B3
:1009D500FF08EFFF08EFFF0739FF0739FF08EFFFB3
:1009E5000F18FF0739FF0F36FF08EFFF08EFFF0766
:1009F50039FF0739FF0C2FFF0C2FFF0C2FFF0C2F92
:100A0500FF0F18FF0F18FF0CB9FF0A2AFF0F18FF79
:100A15000F18FF0CB9FF095CFF0800FF0800FF0A6B
:040A2500E2FF0F18C5
:100260007F01120DD874FAF00F120DD8E50E042498
:1002700060F582E43410F583E0907F97F022120D50
:10028000D87403250EF50E74FD2509F50974FF35A4
:1002900008F5082214F9EF120B55907FE5E0FFAB4B
:1002A00039053BE53BAA3A22EC44F1907F98F0ED0A
:1002B0004C4401F07F01020DD8A907E9C313540390
:1002C000FF7410A8070822050E7410907F97F09015
:1002D0007F9874FAF022907F97F0EC44F0907F982A
:1002E000F022E50E042460F582E43410F583E02268
:1002F000E4F50DF50CF50BF50AF513F512F511F50E
:100300001022F513E4353BF512E4353AF511E435E6
:1003100039F51022050EE509150922050E050E74A2
:10032000FE2274FAF00F120DD8E509150922AF1359
:10033000AE12AD11AC10224EF07F01120DD8EE447A
:10034000F0F022F0907F9874F8F022907F9874FB80
:10035000F0ED440BF022907F977480F022EC44F192
:10036000F07F18020DD814F9EF020B55250FF9E4B0
:060370003410FA7B0122AB
:100DC400907F9874FBF0E521440BF01F120DD8744A
:040DD400FBF07F0BA6
:100DD800EF25E0F404F58AC28DD28C308DFDC28CEB
:010DE80022E8
:100E2E007C007D0A120B67AA06AB07EB4A60107FA7
:100E3E0032120DD81F120DD8EB1B70EF1A80EC2258
:100C7500E4907F93F0907F967420F0907F9C743081
:100C8500F0E4907F95120343907F9E74FFF0E4900B
:100C95007F94F0907F97F0907F9D74FFF0C28CE574
:100CA5008954FC4402F589538EF75389FB5389F720
:040CB500E4F58C22B4
:0A003600E4F50FF50EF508F50922B8
:100EAF00E4907F96F07F32FE120E2E7420F07F9624
:050EBF007E00020E2E72
:100E4E00C2CCC2CDC2C8438E20C2C98DCA8FCB8D33
:0D0E5E00CC8FCDC2CFD2BDD2AD1202F0229A
:100BE100907FC9E0F539E4F9E9C39539503A74C009
:100BF10029F582E4347DF583E024F0601824FE6059
:100C01001A2412701FC2AFC2CA120EAF7DA07F1587
:100C1100120E4E800AC2AFD2CA8004C2AFC2CAD27B
:0E0C2100AF0980C4A93980C0E4907FC9F022D9
:100D3D00AC07E4907F9DF07EFAED1202DBEC4D12D4
:100D4D0002B3907F9AE0FAED1202DBEA5B65256053
:100D5D00077F0B120DD8DEE1120344907F9D74FFC7
:020D6D00F02272
:0A0F18008F21120314700215082245
:1008EF001202B98002C333D8FC64F0F521E930E677
:1008FF00047F3080027F20907F96EFF0E930E51380
:10090F0030E3047D0580027D04E4F5257B80AF2173
:10091F00120D3DE930E0047F0A80027F08AE071216
:10092F00026CEE1202DBE5211203370F120DD8E530
:10093F000E240212026FEE44F1907F98F0E5214EE3
:0D094F001202B1EE44F1F07F0B12027E2285
:100739001202B98002C333D8FC64F0F521E95428C8
:1007490024D8601424087015E930E6047F3080024B
:100759007F20EF1207B0801474201207B0E930E649
:10076900047F3080027F20907F96EFF0E930E0042B
:100779007F0A80027F08AE0712026CEE1202DBE5E7
:10078900211203377F0B120DD8E50E240212026FD6
:10079900EE44F1907F98F0E5214E1202B1EE44F15A
:1007A900F07F1812027E22907F96F0E4F5257B01F6
:0807B9007D04AF21120D3D2269
:060F36008F21120281224E
:100C2F00EF13135403FE7410A806088002C333D8C1
:100C3F00FC64F0FEEF30E4047D3080027D20907F75
:100C4F0096EDF0EF54034408FD12026CED44F4905E
:100C5F007F98F0EE4DF07F0B120DD8ED44F4F012AB
:060C6F00031B12028922A2
:100CB900AE07EE13135401FFEEC394D050047D0028
:100CC90080027D02EF2DFF7410A807088002C3334C
:100CD900D8FC64F0FF907F967420F0EE540344042E
:100CE900FD1202E2F5257BFF120D3D12031B1202D4
:020CF90089224E
:100A2A00AE07EE1202BE8002C333D8FC64F0FDEEBC
:100A3A0030E2047F3080027F20907F96EFF07408C6
:100A4A001202CBED440AF012026012034B120DCFD0
:100A5A001202C7ED440A1202B312032270021508E9
:100A6A0012035612034B120DCFAF057525087B08EA
:0D0A7A007D06120D3D1203147002150822B6
:10095C00EF5403FE7410A806088002C333D8FC645D
:10096C00F0F521EF30E2047F3080027F20907F96FB
:10097C00EFF07910907F9774081202CEE521440AAB
:10098C00F0120260120DC41202C7E521440AF07F76
:10099C0001120DD812032270021508120356120D03
:1009AC00C47525087B087D06AF21120D3D19E97031
:0909BC00C3120314700215082295
:10080000AE07EE1202BC8002C333D8FC64F0FDEEEA
:1008100030E3047F3080027F20907F96EFF0EE304F
:10082000E0047F0A80027F08AC07740F1202D6ED45
:100830004C1202B3EC44F0F07F0B1202691202A8D2
:1008400012035D050E74041202D6ED4C1202B3ECD5
:1008500044F0F07F0B1203267002150812035612A3
:1008600002A812035DAF05EE30E0047D0680027D34
:10087000047525087B08120D3D120314700215083B
:010880002255
:100AE200AE07EE1202BE8002C333D8FC64F0F9EE08
:100AF20030E2047F3080027F20907F96EFF0AF01DA
:100B0200E4F5257B807D04120D3D907F97742A12B7
:100B12000343E944081202B374F8120267907F9803
:100B220074F9F0E94409F01F120DD874F9F07F0B43
:0A0B3200120DD812031B12028922D3
:100470008F3C8E3B8D3A8C39C3E5099403E5089493
:10048000005002A15CE50E1202E5F53D242824F897
:100490004002A12D24E7603E14607014606D14606A
:1004A0007224046002A13812032EEC4D4E4F6017E7
:1004B000E5132401F513E43512F512E43511F511B5
:1004C000E43510F5108007E53C2401120302120305
:1004D0001470021508221202E2F53D12032EEC4DB3
:1004E0004E4F601BE4FCFDFEE513253DF513EE3594
:1004F00012F512ED3511F511EC3510F5108007E508
:100500003D253C12030212031B801E12031B120224
:100510008981787F017E00120E2EC2AF1202F0D2C6
:10052000AF7403250EF50E74FD12028922C3E5098E
:100530009411E50894004024E53D131313541F75EE
:10054000F003A42400F582E43410F583A3E0FAA3B9
:0D055000E0F5828A83AF3D120B8E81782288
:100A87008B398A3A893BED30E010907FE5E0FF052E
:100A97003BE53B7002053A120366ED30E1111202A5
:100AA7009A7002053A1202947002053A120366ED33
:100AB7001313543FFDED602212029A7002053A1299
:100AC70002947002053A1202947002053A120294D7
:0B0AD7007002053A1203661D80DB224E
:10055D00907FCCE020E170A3E07E002509F532EE1E
:10056D003508F531D3E5329400E531940150587ECC
:10057D007C7FC0747C907FE3F074C0907FE4F0903A
:10058D007FCDE0250FF534E433F533D3E534940016
:10059D00E53394017460401512036CE50FF404FD0E
:1005AD00120A877B017A107960AD34800812036CD2
:1005BD00907FCDE0FD120A87E4907FCDF085310864
:1005CD00853209E534F50FC2AFAF0DAE0CAD0BACF6
:1005DD000A8F388E378D368C35D2AF12032EAB384D
:1005ED00AA37A936A835C3120B79400BAF38AE37F1
:1005FD00AD36AC35120470907FC8E020E103120BCC
:02060D00E122E8
:03002B000207C108
:1007C100C0E0C0D075D000C004C005C006C007C2DB
:1007D100CFAF0DAE0CAD0BAC0AEF2401F50DE43E2D
:1007E100F50CE43DF50BE43CF50AD007D006D00545
:0707F100D004D0D0D0E032AB
:100E6B00907FD6E030E712E04401F07F147E001251
:0A0E7B000D9B907FD6E054FEF0229C
:100E0D00907FD6E04480F04387010000000000226F
:070B9000907FD6E04408F05D
:030B9700E4F53151
:040B9A00E054FBF038
:030B9E00E4F5314A
:100BA100E04408F0300404E04402F07FDC7E0512EA
:100BB1000D9B907F92E030E3077FDC7E05120D9B59
:100BC100907FAB74FFF0907FA9F0907FAAF05391D2
:080BD100EF907FD6E054F7F02D
:030BD900E4F5310F
:050BDC00E04404F022DA
:020D6F00A907D2
:100D7100AE18AF198F828E83A3E064037017AD01A3
:100D810019ED7001228F828E83E07C002FFDEC3EF5
:090D9100FEAF0580DF7E007F004B
:010D9A002236
:100CFB00E4FEAC16AD178D828C83A3E06402702DDD
:100D0B00AB060EEBB50705AF05AE04228D828C83C7
:100D1B00A3A3E0F53CA3E0F53D623CE53C623DE579
:100D2B003D623C2DFBE53C3CFCAD0380C97E007F66
:010D3B0000B7
:010D3C002294
:100D9B008E328F33907F92E030E30BE53325E0F515
:100DAB0033E53233F532E5331533AE32700215329B
:090DBB004E6005120E1D80EE22AF
:100E1D007400F58690FDA57C05A3E582458370F9E8
:010E2D0022A2
:03004300020F00A9
:100F0000020E8500020ED700020EC400020E9A00E7
:080F1000020DE90002003200AD
:030000000206AD48
:0C06AD00787FE4F6D8FD75813E0206F46B
:100B3C00BB010689828A83E0225002E722BBFE02B7
:090B4C00E32289828A83E49322EA
:100B5500BB010689828A83F0225002F722BBFE017F
:020B6500F32279
:100B6700EF8DF0A4A8F0CF8CF0A428CE8DF0A42EA2
:020B7700FE225C
:100B7900EB9FF5F0EA9E42F0E99D42F0E89C45F0D2
:010B89002249
:060B8A008A838982E473F6
:1006B900020376E493A3F8E493A34003F68001F2DE
:1006C90008DFF48029E493A3F85407240CC8C33342
:1006D900C4540F4420C8834004F456800146F6DF11
:1006E900E4800B01020408102040809009C5E47ED3
:1006F900019360BCA3FF543F30E509541FFEE49306
:10070900A360010ECF54C025E060A840B8E493A3CC
:10071900FAE493A3F8E493A3C8C582C8CAC583CAF7
:10072900F0A3C8C582C8CAC583CADFE9DEE780BEAF
:010A290000CC
:00000001FF
