:100500001201000200000040470502100000010235
:1005100000010A06000200000040010009022E004E
:10052000010100C0FA0904000004FF0000000705F3
:100530000202800000070504028000000705860211
:100540008000000705880280000009022E000101DA
:1005500000C0FA0904000004FF00000007050202C1
:100560004000000705040240000007058602400025
:10057000000705880240000004030904100343003B
:100580007900700072006500730073004803450035
:100590005A002D00550053004200200053006F0008
:1005A00075006E0064002000470065006E00650065
:1005B0007200610074006F0072002000440065004A
:1005C00076006900630065002000720030002E0094
:0605D000310038000000BC
:0A00360000010202030304040505A3
:10090300EC4EFEED4F2436F58274003EF583E493FE
:10091300FF3395E0FEEF24A1FFEE34E68F82F583EB
:100923002290E6BCE0547EFF7E00E0D394807C00FE
:1009330022F0E5242401F524E43523F523E43522CC
:10094300F522E43521F52122AF28AE27AD26AC25CB
:10095300AB24AA23A922A821C3020D88E52E2524AE
:09096300F582E52D3523F5832210
:1001EA00E4F52CF52BF52AF529C203C200C202C296
:1001FA000112096C7E057F008E0A8F0B7512057538
:10020A00131275080575091C75100575114A7514C0
:10021A0005751578EE54E0700241D5752D00752EDE
:10022A00808E2F8F30C374D49FFF74059ECF240213
:10023A00CF3400FEE48F288E27F526F525F524F520
:10024A0023F522F52112094B500A12095F74CD12C7
:10025A00093480F1E4F524F523F522F52112094B3E
:10026A005017E5302524F582E52F3523F583E0FF85
:10027A0012095FEF12093480E4852D0A852E0B746A
:10028A00002480FF740534FFFEC3E5139FF513E5D0
:10029A00129EF512C3E50D9FF50DE50C9EF50CC3F4
:1002AA00E50F9FF50FE50E9EF50EC3E5099FF509CB
:1002BA00E5089EF508C3E5119FF511E5109EF510B6
:1002CA00C3E5159FF515E5149EF514D2E843D82029
:1002DA0090E668E04408F090E65CE0443DF0D2AF76
:1002EA0090E680E020E105D204120C3D90E680E021
:1002FA0054F7F0538EF8C203300105120056C201BA
:10030A003003291200405024C203120DEB200016BC
:10031A0090E682E030E704E020E1EF90E682E03008
:10032A00E604E020E0E4120D1E1200501205D68009
:01033A00C7FB
:1000560090E6B9E0B40C00400221D690006725E096
:100066007301F9214A21D621A021D621D6017F216B
:10007600D601F401EF01E501EA1207FC400221E294
:1000860090E6BBE024FE602214603324FD60111468
:10009600602224067047E50A90E6B3F0E50B803748
:1000A600E51290E6B3F0E513802DE50C90E6B3F08B
:1000B600E50D8023E50E90E6B3F0E50F801990E696
:1000C600BAE0FF120D4AAA06A9077B01EA494B606E
:1000D6000CEE90E6B3F0EF90E6B4F021E221DB12ED
:1000E6000EDE21E2120ED021E21204F821E2120EF7
:1000F600D821E21207FE400221E290E6B8E0247F12
:10010600601514601924027039A200E43325E0FF5B
:10011600A202E4334F8018E490E740F080161209FB
:100126002440047D0180027D00120903E054019001
:10013600E740F0E4A3F090E68AF090E68B7402F0D4
:1001460021E221DB120EEA400221E290E6B8E02429
:10015600FE60132402600221E290E6BAE0B40104D4
:10016600C20021E221DB90E6BAE0702C120924409D
:10017600047D0180027D00120903E054FEF090E642
:10018600BCE05480131313541FFFE0540F2F90E666
:1001960083F0E04420F08044803B120EEC503D900A
:1001A600E6B8E024FE60192402703190E6BAE0B4A5
:1001B6000104D200802690E6BAE06402601E801533
:1001C60012092440047D0180027D00120903800883
:1001D600120003500790E6A0E04401F090E6A0E08C
:0401E6004480F0223F
:0300330002002E9A
:04002E0053D8EF3282
:100C6C005391EF90E65D2290E740F0E490E68AF035
:100C7C0090E68B04F0D322850D82850C83A374023D
:0D0C8C00F022850F82850E83A37407F022ED
:10096C0090E600E054E74410F090E601E04440F0DB
:10097C0090E61074A0F090E611F000000090E612E2
:10098C0074A2F000000090E61374A0F00000009038
:10099C00E61474E2F000000090E61574E0F000003C
:1009AC000090E6917480F0000000F000000090E6EA
:1009BC0095F0000000F043AF01120C9912004612A2
:0509CC000EBDD2002267
:02004000D322C9
:02005000D322B9
:0207FC00D32206
:0804F80090E6BAE0F517D322EB
:060ED800E517120C732265
:080ED00090E6BAE0F516D3220A
:060EDE00E516120C732260
:0207FE00D32204
:020EEA00D32211
:020EEC00D3220F
:1000030090E6B9E0242F600D04701990E604E0FF38
:10001300430780800890E604E0FF53077F00000059
:08002300EFF08002D322C3229A
:100E6D00C0E0C083C082D201120C6C7401F0D0823C
:050E7D00D083D0E0323B
:100E9700C0E0C083C082120C6C7404F0D082D0838F
:030EA700D0E03266
:100EAA00C0E0C083C082120C6C7402F0D082D0837E
:030EBA00D0E03253
:100DC600C0E0C083C08285100C85110D120C83858E
:100DD600080E85090F120C8E120C6C7410F0D0825E
:050DE600D083D0E032D3
:100E8200C0E0C083C082D203120C6C7408F0D0821E
:050E9200D083D0E03226
:100CC600C0E0C083C08290E680E030E71285080C61
:100CD60085090D120C8385100E85110F120C8E12CC
:0C0CE6000C6C7420F0D082D083D0E0327F
:1009D10060601000FF0888FF04EEFF068EFF0EE442
:1009E100FF0888FF0888FF068EFF068EFF0888FF34
:1009F10004EEFF068EFF0EE4FF0888FF0888FF065D
:100A01008EFF068EFF0B82FF0B82FF0B82FF0B8294
:100A1100FF04EEFF04EEFF0BC7FF07A6FF04EEFF86
:100A210004EEFF0BC7FF0A36FF0800FF0800FF0AAC
:040A31009AFF04EE36
:10042800440AF5B07F01120E1D75B0FA0F120E1DA9
:10043800E547042460F582E43410F583E022120EC7
:100448001D74032547F54774FD2542F54274FF35B1
:1004580041F5412290E67BE090E67CF090E67BE077
:1004680090E67CF02275B0FBED440BF5B01F120E40
:100478001D75B0FB7F0B020E1DAE07EE5403FF7413
:1004880010A8070822E4F546F545F544F543F54C70
:10049800F54BF54AF54922F54CE4353DF54BE43585
:1004A8003CF54AE4353BF549220547E54215422229
:1004B8000547054774FE2275B0FA0F120E1DE54276
:1004C800154222AF4CAE4BAD4AAC4922EC44F0F594
:1004D800B07F0B22EC44F1F5B07F18222548F9E4EF
:0604E8003410FA7B012232
:0D0E1000EC44F1F5B0ED4C4401F5B07F016C
:100E1D00EF25E025E0F404F58AC28DD28C308DFDEE
:030E2D00C28C2252
:100E30007C007D0A120D76AA06AB07EB4A60107F94
:100E400032120E1D1F120E1DEB1B70EF1A80EC22CA
:100C9900E490E670F075802075B23075B0F875B5DE
:100CA900FFF59075B3FFC28CE58954FC4402F589C0
:0D0CB900538EF75389FB5389F7E4F58C2225
:0A004600E4F548F547F541F54222C4
:100EBD00E4F5807F32FE120E307580207F967E0025
:030ECD00020E30E2
:100E5000C2CCC2CDC2C8438E20C2C98DCA8FCB8D31
:0D0E6000CC8FCDC2CFD2BDD2AD12048D22F9
:100AED0090E691E0F53BE4F9E9C3953B503A74008B
:100AFD0029F582E434F0F583E024F0601824FE60DB
:100B0D001A2412701FC2AFC2CA120EBD7DA07F156E
:100B1D00120E50800AC2AFD2CA8004C2AFC2CAD26E
:0F0B2D00AF0980C4A93B80C090E6917480F0228C
:100CF200AE07E4F5B37CFAED44F0F5B0EE4D120E1A
:100D020019AF90ED44F0F5B0EF5B652560077F0BFE
:0C0D1200120E1DDCE275B0F875B3FF2274
:0A04EE008F211204B17002154122A3
:10088800AA07EAC3131204848002C333D8FC64F0B5
:10089800F9EA30E6047F3080027F208F80EA30E575
:1008A80013AF0130E3047D0580027D04E4F5257B68
:1008B80080120CF2EA30E0047F0A80027F08AE075B
:1008C800120438F590EE44F0F5B0E94E120E19EE28
:1008D80044F0F5B00F120E1DE547240212043BF553
:1008E80090EE44F1F5B0E94E4401F5B01F120E1D2B
:0B08F800EE44F1F5B07F0B1204462225
:10068E00A907E9C3131204848002C333D8FC64F0B3
:10069E00F521E9542824D8601524087017E930E6AE
:1006AE00047F3080027F208F8012070D80127580AC
:1006BE002012070DE930E6047F3080027F208F8004
:1006CE00E930E0047F0A80027F08AE07120438F595
:1006DE0090EE44F0F5B0E5214E120E19EE1204D54F
:1006EE00120E1DE547240212043BF590EE44F1F57F
:1006FE00B0E5214E120E17EE1204DD12044622E46E
:0C070E00F5257B017D04AF21120CF222C6
:060EE4008F2112044922D7
:100B8200EF13135403FE7410A806088002C333D86F
:100B9200FC64F0FEEF30E4047D3080027D208D8025
:100BA200EF54034408FD120438F590ED44F4F5B017
:100BB200EE4DF5B07F0B120E1DED44F4F5B01204AC
:050BC200B812045122ED
:100BC700AE07EE13135401FFEEC394D050047D001B
:100BD70080027D02EF2DFF7410A807088002C3333F
:100BE700D8FC64F0FF758020EE54034404FD120422
:0F0BF70038F5257BFF120CF21204B812045122BC
:1007A6001204818002C333D8FC64F0FDEE30E2040B
:1007B6007F3080027F208F8075900875B0FAED1229
:1007C6000428F59012046D054775901075B0FAED82
:1007D600440A120E191204BF700215417590801258
:1007E600046DAF057525087B087D06120CF2120410
:0607F600B1700215412262
:100A36001204818002C333D8FC64F0FAEE30E2047B
:100A46007F3080027F208F80791075900875B0FA0C
:100A5600EA120428F59075B0FBEA12047105477591
:100A6600901075B0FAEA440A120E191204BF700209
:100A7600154175908075B0FBEA120471AF027525B9
:100A8600087B087D06120CF219E970BE1204B170DB
:040A960002154122E2
:10080000AE07EEC3131204848002C333D8FC64F035
:10081000FDEE30E3047F3080027F208F80EE30E0F9
:10082000047F0A80027F08AC0775900FEC44F0F556
:10083000B0ED4C120E191204D4120435F590120EBC
:10084000101204DC120E1D0547759004EC44F0F5FF
:10085000B0ED4C120E191204D41204C370021541EB
:10086000759080120E101204DC120E1DAF05EE30D2
:10087000E0047D0680027D047525087B08120CF2D9
:080880001204B17002154122BF
:100A9A001204818002C333D8FC64F0FAEE30E20417
:100AAA007F3080027F208F80AF02E4F5257B807D36
:100ABA0004120CF275902A75B0F8EA4408120E195D
:100ACA0075B0F8120434F59075B0F9EA4409F5B036
:100ADA001F120E1D75B0F97F0B120E1D1204B812EB
:030AEA0004512292
:10033B008F3E8E3D8D3C8C3BC3E5429403E541944F
:10034B000050028127E54712043BF53F242824F88F
:10035B00400261F824E7603E14607014606D146015
:10036B00722404600281031204CBEC4D4E4F6017D4
:10037B00E54C2401F54CE4354BF54BE4354AF54A95
:10038B00E43549F5498007E53E240112049F120428
:10039B00B17002154122120438F53F1204CBEC4D1B
:1003AB004E4F601BE4FCFDFEE54C253FF54CEE3556
:1003BB004BF54BED354AF54AEC3549F5498007E5E8
:1003CB003F253E12049F1204B8801E1204B812047B
:1003DB005161437F017E00120E30C2AF12048DD2E9
:1003EB00AF74032547F54774FD12045122C3E54250
:1003FB009411E54194004024E53F131313541F75EA
:10040B00F003A42400F582E43410F583A3E0FAA3EF
:0D041B00E0F5828A83AF3F120D9D61432200
:100D9F00EAF59DE9F59EED30E003120464ED30E1D4
:100DAF000312045CED1313543FFDED600912045C54
:070DBF0012045C1D80F42208
:1005D600E5AA20E27A90E694E0753100F5327532AC
:1005E60000F53190E695E04232E5422532F534E5F4
:1005F600413531F533D3E5349400E5339401504F5A
:100606007F0074F4F59A7400F59B7E00E532254868
:10061600F536EE3531F535D3E5369400E5359401FA
:10062600746040131204E4E548F404FD120D9F7A49
:10063600107960AD3680051204E4AD32120D9F903C
:10064600E6957480F0853341853442E536F548C237
:10065600AFAF46AE45AD44AC438F3A8E398D388C3C
:1006660037D2AF1204CBAB3AAA39A938A837C3128E
:100676000D88400BAF3AAE39AD38AC3712033BE5C7
:08068600AA20E003120AED2294
:03002B00020C06BE
:100C0600C0E0C0D075D000C004C005C006C007C291
:100C1600CFAF46AE45AD44AC43EF2401F546E43EC6
:100C2600F545E43DF544E43CF543D007D006D00550
:070C3600D004D0D0D0E03261
:100D1E0090E682E030E004E020E60B90E682E030E0
:100D2E00E119E030E71590E680E04401F07F147E93
:0C0D3E0000120B3C90E680E054FEF02216
:100DEB0090E682E044C0F090E681F043870100007A
:040DFB0000000022D2
:100C3D0030040990E680E0440AF0800790E680E0F9
:100C4D004408F07FDC7E05120B3C90E65D74FFF0EE
:0F0C5D0090E65FF05391EF90E680E054F7F022BD
:020D4A00A907F7
:100D4C00AE14AF158F828E83A3E064037017AD01D0
:100D5C0019ED7001228F828E83E07C002FFDEC3E1A
:090D6C00FEAF0580DF7E007F0070
:010D7500225B
:100B3C008E318F3290E600E054187012E5322401A9
:100B4C00FFE43531C313F531EF13F532801590E620
:100B5C0000E05418FFBF100BE53225E0F532E5310B
:100B6C0033F531E5321532AE31700215314E600578
:060B7C00120DFF80EE22C5
:100DFF007400F58690FDA57C05A3E582458370F907
:010E0F0022C0
:03004300020F00A9
:03005300020F0099
:100F0000020E6D00020EAA00020E9700020E820071
:080F1000020DC600020CC60030
:0300000002071ADA
:0C071A00787FE4F6D8FD75814C02076181
:100D7600EF8DF0A4A8F0CF8CF0A428CE8DF0A42E91
:020D8600FE224B
:100D8800EB9FF5F0EA9E42F0E99D42F0E89C45F0C1
:010D98002238
:060D99008A838982E473E5
:100726000201EAE493A3F8E493A34003F68001F2FE
:1007360008DFF48029E493A3F85407240CC8C333D4
:10074600C4540F4420C8834004F456800146F6DFA3
:10075600E4800B01020408102040809009D1E47E59
:10076600019360BCA3FF543F30E509541FFEE49398
:10077600A360010ECF54C025E060A840B8E493A35F
:10078600FAE493A3F8E493A3C8C582C8CAC583CA8A
:10079600F0A3C8C582C8CAC583CADFE9DEE780BE42
:010A350000C0
:00000001FF
