:100000000AC041C056C2FFCFFFCFFFCFFFCFFFCF07
:10001000FFCFFFCFFFCF0FED0DBF112400E608BBD0
:100020000FE602BB0EE907BB03E601BB05B70C7F79
:10003000026005BF0BB700640BBF05B7037F086004
:1000400005BF8ED203B7087F066003BF05B7006205
:100050000F7E05BF08B1006808B92227AA24992499
:1000600066275524662400E1702E7727882700E252
:1000700097D203E295D278942111889520FD0ED075
:1000800061FD3CD1F9CF3FB62160939461FD60D210
:1000900061FDC79A61FFC7983FBE18959CD1A1D159
:1000A0002E7FD3D203D040C0662408950FEFA0FC6A
:1000B000009161009FEFA1FC90916400102F6620D9
:1000C00011F4192302C060FD192F10FDEDCF61FD61
:1000D00004C090FF616000FF6E7F0DE2601609F4BE
:1000E000089563946012089561FF0CC0E894A4F829
:1000F000A5F86D7F00E860FD02E852D200E250D220
:1001000003E24EC2BDD1C6E8D0E000E5C0D1C0E9EF
:10011000D0E001E360FD0395BAD1626000E260FDCA
:1001200002E23EC25524089561FFFCCF60FD07C086
:10013000A0FEF8CF009161001091620006C0A1FE00
:10014000F1CF0091640010916500912F007F107F26
:100150001295012B5094502A252C502E27FE14D096
:1001600026FE1DD025FE29D024FE35D023FE3ED00C
:1001700022FE3FD021FE76D020FE75D0022D007FDA
:10018000003F09F099240895082F0F7011F08A9507
:100190000895807F11F08051089587E40895072F16
:1001A0000F70033010F473950895072F007F003C03
:1001B00010F4705F089577270895082F0F700730A7
:1001C00010F483950895082F007F003410F4805FA9
:1001D000089588270895072F0F7011F07A950895D4
:1001E000707F11F07051089573EC089504E060275A
:1001F0000895E6E6F0E0072F007F0295172F1F70A5
:10020000010F000FE00FF11D082F007F0295182F3E
:100210001F70010FA0E801FDA0E200FDA69502FD00
:10022000A29503FFC08103FDC181D1811C2F1A2338
:1002300011F4CA2B0DC01D2FD1FBD0F9109510FB66
:10024000D1F91D2F1370113019F4A095CA23DC7F4A
:1002500003FD03C0C083D1830895CC7FD370DC2B12
:10026000D183089508959F7029F0973041F09B3015
:1002700061F008952F9200E493D12F900895072DF7
:100280000F3208F0089573940895772009F40895C3
:100290007A940895544353202020202020202020A9
:1002A0005352543F3D3C3E414243444554435331F5
:1002B00031323232323232325352543839303132B2
:1002C0003334353654435320202020202020202052
:1002D000535254565758595A61626364203C203D2A
:1002E000203E203F535452334C335345202720287F
:1002F000203A203B52314C3152324C32B72FB07F32
:10030000B295A82FA07FA295ECEDF2E00B2F000F85
:10031000E00FF11DCAE9D0E014E0C8953196002D38
:10032000B6D0C8953196002DB2D028961A95A9F767
:10033000E4E9F2E062FF06C0ECEAF2E060FF02C02E
:10034000E4ECF2E0EA0FF11DC8E8D0E002E0202E74
:1003500018E0C8953196002D9AD01A95D1F73496A9
:1003600022962A94A9F7E6E6F0E00B2F000FE00FA3
:10037000F11DCCE9D0E004E00F93008021809FE4E0
:1003800021FE03C092E320FC94E3FA2EFF2021F02B
:10039000220C001CFA94E1F718E0220C001C00E487
:1003A00008F4092F74D01A95C1F7329622960F914E
:1003B0000A9511F794FC0895CCE9D0E0072F0F704F
:1003C00021F0C65FDF4F0A95FBCF082F0F70C00FDB
:1003D000D11D05E25CC0E0E6F0E001E09598969A58
:1003E00006C0E3E6F0E002E0959A969800C00F930D
:1003F00010E61A95F1F712BE01E025D002E423D0F1
:1004000001930F7009F400E1000F202E00E01BD0D3
:100410002F92122D02E0202E00E015D0222011F0A4
:100420002A9401931A95C1F72F9002B70250201613
:1004300019F40F91A02A04C00F910095A02200C0CA
:10044000959A969A08951F9318E000FF919800FDE1
:10045000919A90981F931AE01A95F1F7909AB09B91
:100460008894B0990894079516E01A95F1F71F91B2
:100470001A9559F7919A11E21A95F1F71F9108957B
:10048000C6E8D0E01CE319921A95E9F70895DD2338
:1004900079F4C63868F0C23C58F400520F73043344
:1004A00008F00B52D02F000F000F0D0FDD2709931E
:1004B00008953FB661FF20C00F925F92AF93BF9344
:1004C000EF93FF9358B2A6E8B0E056E045E017D0AE
:1004D00016D015D04A95D9F744E08399FECF839B77
:1004E000FECF4A95D1F7A65F5A9581F7FF91EF911C
:1004F000BF91AF915F900F9033D03FBE1895839915
:10050000FECF839BFECF372D33953A95F1F7ED91D2
:10051000E41BFF0BE352F94F3AE0C398C895ED9105
:10052000E41B04FA53F858BAFF0B03FA53F858BA0D
:10053000E35202FA53F858BAF94F01FA53F858BA8D
:100540003A9500FA53F858BA41F7AB50C39808955A
:100550000F9300E80ABF0BB700680BBF0F91089517
:100560000F930BB70F770BBF00E80ABF0F910895E9
:100570000400080002001000A00000000000C000FD
:100580000103010000800040801080208000800076
:10059000E0E7F5E0C895319609921A95D9F70895E4
:1005A000002E18E001FE01C018E2212EC6E6D0E0C0
:1005B00000FE02C0C6E8D0E010E206FCE9CF05FE6E
:1005C00003C00DD00F3F21F307FC03C008D00993EF
:1005D00002C009910AD023941A95B1F70895E199C0
:1005E000FECF2EBAE09A0DB308952F92E199FECF77
:1005F0002EBAE09A2DB2021531F00DBB0FB7F89468
:10060000E29AE19A0FBF2F900895AA27B0E800D090
:10061000288018E0F080000FF7FA00F9220C68F04B
:10062000918191FF05C0092C90FD069400FE05C044
:100630009C7FA92B9FE7F922BF2932961A9551F783
:10064000299020940211BF770895BB24CC24DD2487
:10065000EE2461FD22C0062D0D32F9F0A0FE07C088
:10066000C1E6D0E0E6E6F0E0D0DFBA2ECB2EA1FE68
:1006700007C0C4E6D0E0E6E8F0E0C7DFDA2EEB2EF4
:100680002A2CC6FA24F8E6FA25F8022D20942A200E
:10069000A02E24FAC6F825FAE6F8C2980C2D0E29E9
:1006A000000F13D0BB0CCC1CDD0CEE1C1BE0BB0CF4
:1006B000CC1C0BD0DD0CEE1C08D01A95C1F7C498E9
:1006C000C29AC49AC498C2980895C49808F0C19870
:1006D00008F4C19AC49A0895000000000000000EBA
:1006E000120D10101C121C00000E100E02020E1231
:1006F0000E1F1F1F1F1F081408150E1F1111111F99
:10070000110A040A111F04040404111111110E111D
:1007100011110A04111115150A110A040A11110AFE
:100720000404041F0204081F0C1212120C040C040F
:1007300004040C1204081E0C1204120C040C141EE7
:10074000041E101C021C0C101C120C1E12020404AD
:100750000C120C120C0C120E020C0E1B111B0E04B0
:100760000E1B111F04081F08040404150E040402C4
:100770001F0204040E15040400000E0000040A11F8
:100780001F111E111E111E0E1110110E1E1111111E
:100790001E1F101E101F1F101E10100E1013110F01
:1007A00011111F11110E0404040E070202120C1283
:1007B00014181412101010101F111B1511111119FB
:1007C0001513110E1111110E1E111E10100E111500
:0C07D000120D1E111E14130F100E011E3E
:00000001FF
